:100000000C944D1A0C947E1A0C947E1A0C947E1A41
:100010000C947E1A0C947E1A0C947E1A0C947E1A00
:100020000C947E1A0C947E1A0C947E1A0C947E1AF0
:100030000C947E1A0C94CDBF0C947E1A0C947E1AEC
:100040000C947E1A0C94E9500C947E1A0C947E1A2F
:100050000C947E1A0C947E1A0C942D470C947CC33D
:100060000C947E1A0C94986E0C947E1A0C947E1A42
:100070000C947E1A0C947E1A0C947E1A0C947E1AA0
:100080000C9484510C947E1A0C947E1A0C947E1A53
:100090000C947E1A0C947E1A0C947E1A0C947E1A80
:1000A0000C947E1A0C947E1A0C9456510C947E1A61
:1000B0000C947E1A0C947E1A0C947E1A0C9428517F
:1000C0000C947E1A0C947E1A0C947E1A0C947E1A50
:1000D0000C947E1A0C947E1A0C947E1A0C947E1A40
:1000E0000C947E1A084AD73B3BCE016E84BCBFFD00
:1000F000C12F3D6C74319ABD56833DDA3D00C77FF8
:1001000011BED9E4BB4C3E916BAAAABE0000008090
:100110003F05A84CCDB2D44EB93836A9020C50B91F
:10012000918688083CA6AAAA2ABE000000803F004B
:100130004E414E494E495459494E46CDCCCC3D0ACC
:10014000D7233C17B7D13877CC2B329595E6241FAF
:10015000B14F0A000020410000C84200401C462068
:10016000BCBE4CCA1B0E5AAEC59D74434F4D4D5577
:100170004E49434154494F4E0044525952554E0046
:100180004552524F525300494E464F004543484F47
:100190000070012C0190012701B0012201C0011D56
:1001A00001F00118011002130130020E0160020972
:1001B0000190020401C002FF000003FA004003F5B1
:1001C000008003F000D003EB002004E6007004E19F
:1001D00000E004DC004005D700C005D2004006CD99
:1001E00000D006C8008007C3003008BE00F008B980
:1001F00000C009B400B00AAF00B00BAA00D00CA533
:1002000000000EA000500F9B00C0109600501291ED
:100210000000148C00C0158700B0178200B0197D53
:1002200000D01B7800001E730040206E00902269F1
:1002300000F024640040275F0090295A00E02B550D
:1002400000102E500020304B0010324600E03341A9
:100250000090353C001037370070383200A0392D3F
:1002600000B03A2800A03B2300603C1E00103D195E
:1002700000903D1400103E0F00703E0A00C03E0585
:1002800000003F0000403FFBFF803FF6FFC03FF112
:10029000FF4572726F722077726974696E6720749D
:1002A0006F20454550524F4D210A00454550524F51
:1002B0004D206461746173697A65206572726F7232
:1002C0002E0A00290A002062797465733B2063724C
:1002D00063200053657474696E67732053746F7282
:1002E0006564202800290A002062797465733B2028
:1002F00063726320002073746F7265642073657489
:1003000074696E67732072657472696576656420BE
:100310002800202863616C63756C61746564292111
:100320000A0020213D2000454550524F4D204352A8
:1003300043206D69736D61746368202D2028737488
:100340006F7265642920002053697A653A2000495C
:100350006E6465783A2000204D61726C696E3D567E
:100360003535290A0028454550524F4D3D00454539
:1003700050524F4D2076657273696F6E206D6973B0
:100380006D61746368200048617264636F646564C2
:100390002044656661756C742053657474696E677A
:1003A00073204C6F616465640A00B80B0000B80BE1
:1003B0000000640000001027000010270000102734
:1003C000000000009643000096430000A04000009B
:1003D000C8410000C8410000C8410000A042000020
:1003E000A04200007A450000FA430000FA430000F2
:1003F000FA4320286D6D2900204400204900202068
:100400004D33303120500050494420736574746975
:100410006E67733A0A002046002042002048002000
:10042000204D3134352053004D6174657269616C23
:100430002068656174757020706172616D657465A6
:1004400072733A0A00205A0020590020204D3230A1
:1004500036205800486F6D65206F66667365743A84
:100460000A00204800204A00204500205A00205958
:100470000020580020540020530020204D323035F9
:1004800020510020483C6D61785F685F6A65726B3F
:100490003E00204A3C6D61785F6A5F6A65726B3E20
:1004A0000020453C6D61785F655F6A65726B3E0058
:1004B00020583C6D61785F785F6A65726B3E2059A9
:1004C0003C6D61785F795F6A65726B3E205A3C6D66
:1004D00061785F7A5F6A65726B3E00416476616E37
:1004E0006365643A20513C6D696E5F7365676D6545
:1004F0006E745F74696D655F75733E20533C6D6902
:100500006E5F66656564726174653E20543C6D691A
:100510006E5F74726176656C5F6665656472617446
:10052000653E0020540020520020204D32303420FF
:100530005000416363656C65726174696F6E202859
:10054000756E6974732F7332293A20503C7072694A
:100550006E745F616363656C3E20523C72657472B9
:100560006163745F616363656C3E20543C747261C7
:1005700076656C5F616363656C3E0A00204800200D
:100580004A00204500205A0020590020204D3230DA
:10059000312058004D6178696D756D204163636548
:1005A0006C65726174696F6E2028756E6974732F43
:1005B0007332293A0A00204800204A0020450020D2
:1005C0005A0020590020204D3230332058004D6110
:1005D00078696D756D2066656564726174657320F8
:1005E00028756E6974732F73293A0A002048002019
:1005F0004A00204500205A0020590020204D393261
:1006000020580053746570732070657220756E6990
:10061000743A0A0020204D3230302044300A002045
:10062000204D3230302044002044697361626C6593
:10063000640A0046696C616D656E7420736574743C
:10064000696E67733A0020204D3134392043203BD6
:1006500020556E69747320696E2043656C736975EB
:10066000730A002020473231202020203B005452C2
:1006700049474745524544006F70656E003A200077
:100680007A5F6D6178007A5F6D696E00795F6D6188
:100690007800795F6D696E00785F6D617800785FD2
:1006A0006D696E005265706F7274696E6720656E59
:1006B0006473746F70207374617475730A00656E6F
:1006C0007175657565696E672022004B494C4C4514
:1006D000442E200053544F505045442E2000507259
:1006E000696E7465722073746F70706564206475D0
:1006F0006520746F206572726F72732E2046697860
:1007000020746865206572726F7220616E64207556
:100710007365204D39393920746F207265737461A7
:1007200072742E202854656D7065726174757265DF
:100730002069732072657365742E20536574206977
:100740007420616674657220726573746172746975
:100750006E67290A004E6F20436865636B73756D81
:100760002077697468206C696E65206E756D6265AE
:10077000722C204C617374204C696E653A20004ED7
:100780006F20436865636B73756D207769746820AB
:100790006C696E65206E756D6265722C204C61739C
:1007A00074204C696E653A2000636865636B7375ED
:1007B0006D206D69736D617463682C204C61737476
:1007C000204C696E653A20004C696E65204E756D4F
:1007D000626572206973206E6F74204C617374209F
:1007E0004C696E65204E756D6265722B312C204C04
:1007F000617374204C696E653A20004D31313000D0
:100800004D33310053442072656164206572726F0C
:10081000720A00446F6E65207072696E74696E674B
:100820002066696C650A0020496E76616C696420F7
:100830006578747275646572200000000000000025
:1008400000000000000000001644000016440000F4
:100850001644486F6D696E67206661696C65640057
:1008600043616E6E6F74206F70656E207375626485
:100870006972200050726F746563746564205069FA
:100880006E0A0020573A004520436F6F6C696E670F
:100890002E2E2E00452048656174696E672E2E2E1F
:1008A00000205A3A0020593A0020436F756E742098
:1008B000583A0020483A00204A3A0020453A0020A1
:1008C0005A3A0020593A00583A003A004361703AC7
:1008D0000023646566696E652044454641554C5465
:1008E0005F4B64200023646566696E65204445465D
:1008F00041554C545F4B69200023646566696E6501
:100900002044454641554C545F4B702000504944AB
:10091000204175746F74756E652066696E697368C1
:100920006564212050757420746865206C6173744F
:10093000204B702C204B6920616E64204B64206337
:100940006F6E7374616E74732066726F6D20626572
:100950006C6F7720696E746F20436F6E6669677580
:10096000726174696F6E2E680A00504944204175A7
:10097000746F74756E65206661696C65642120749E
:10098000696D656F75740A00504944204175746F34
:1009900074756E65206661696C6564212054656DAF
:1009A000706572617475726520746F6F2068696715
:1009B000680A00204B643A2000204B693A2000204E
:1009C0004B703A20000A20436C61737369632050B6
:1009D0004944200A002054753A2000204B753A20E3
:1009E00000206D61783A2000206D696E3A20002069
:1009F000643A200020626961733A20005049442023
:100A00004175746F74756E652073746172740A0039
:100A1000504944204175746F74756E652066616934
:100A20006C65642120426164206578747275646528
:100A300072206E756D6265720A00486F6D652025C3
:100A4000732573257320666972737400206669725A
:100A500073740A005A0059005800486F6D652000F1
:100A60004F666673657473206170706C69656400AD
:100A70004572723A20546F6F206661722100546F84
:100A80006F206661722066726F6D20726566657296
:100A9000656E636520706F696E740A0047322F4778
:100AA000332062616420706172616D657465727378
:100AB0000A00536C6565702E2E2E005761697420F4
:100AC000666F7220757365722E2E2E004E6F206D2C
:100AD0006F76652E00456E642066696C65206C69D2
:100AE00073740A00426567696E2066696C65206CE4
:100AF0006973740A00286E6F2066696C652900436B
:100B0000757272656E742066696C653A2000534494
:100B1000207072696E74696E672062797465200056
:100B20004E6F74205344207072696E74696E670A48
:100B30000044656C6574696F6E206661696C6564FC
:100B40002C2046696C653A200046696C6520646516
:100B50006C657465643A002569730025696D20250C
:100B60006973002569682025696D20256973002552
:100B70006964202569682025696D20256973002531
:100B8000697920256964202569682025696D2025FB
:100B90006973005072696E742074696D653A200043
:100BA0006F6666008C018701800179016B01444505
:100BB0004255473A004B494C4C45442E20004D319C
:100BC00031332053006F6B003344205072696E74D0
:100BD000657220B5202E002C20002C2000544845A2
:100BE000524D414C5F50524F54454354494F4E0073
:100BF0004155544F5245504F52545F53445F5354E4
:100C00004154555300454D455247454E43595F5059
:100C1000415253455200434153455F4C4947485464
:100C20005F4252494748544E45535300544F47473B
:100C30004C455F4C494748545300534F4654574125
:100C400052455F504F574552004255494C445F5002
:100C5000455243454E54004C4556454C494E475F1E
:100C600044415441005A5F50524F4245004155544F
:100C70004F4C4556454C005052494E545F4A4F42E6
:100C80000050524F4752455353004155544F52451F
:100C9000504F52545F54454D5000564F4C554D45A2
:100CA0005452494300454550524F4D005345524917
:100CB000414C5F584F4E5F584F4646004649524D93
:100CC000574152455F4E414D453A4D61726C696ED8
:100CD00020312E312E392028476974687562292009
:100CE000534F555243455F434F44455F55524C3A2D
:100CF00068747470733A2F2F6769746875622E6315
:100D00006F6D2F4D61726C696E4669726D7761729D
:100D1000652F4D61726C696E2050524F544F434F96
:100D20004C5F56455253494F4E3A312E30204D417B
:100D30004348494E455F545950453A334420507218
:100D4000696E7465722045585452554445525F434C
:100D50004F554E543A3120555549443A63656465C0
:100D6000326132662D343161322D343734382D39C9
:100D70006231322D63353563363266333637666617
:100D80000A002F2F20004D31343520533C696E640A
:100D900065783E206F7574206F662072616E67659E
:100DA0002028302D31290A002054002052004163B0
:100DB00063656C65726174696F6E3A205000205AE9
:100DC00000205900580020204D61783A2000205A18
:100DD00000205900580020204D696E3A2000B320B1
:100DE00000B52000536F667420656E6473746F7075
:100DF000733A200020466C6F773A200000013637A6
:100E0000260302FFFF353C3D380E0FFFFF312E3029
:100E10003E1213FFFFFF28FF0C282AFFFFFF1A1CBA
:100E200018FFFF2A28442CFF43206F7574206F663B
:100E30002072616E67650A00536572766F20003A12
:100E4000200020536572766F2000496E76616C69D0
:100E5000642065787472756465720A0020643A00D3
:100E600020693A0020703A004E6F2063617365205C
:100E70006C696768740A00454550524F4D204F4BCE
:100E80000A004163746976652045787472756465FB
:100E9000723A2000496E76616C69642065787472DC
:100EA000756465720A00526573656E643A20006F5E
:100EB0006B00627573793A207061757365642066A2
:100EC0006F7220696E7075740A00627573793A20CA
:100ED00070617573656420666F7220757365720A40
:100EE00000627573793A2070726F63657373696E0F
:100EF000670A004B494C4C45442E20004B494C4C52
:100F000020636175736564206279204B494C4C20E5
:100F1000627574746F6E2F70696E0A004B494C4C89
:100F200045442E20004B494C4C2063617573656429
:100F300020627920746F6F206D75636820696E611F
:100F400063746976652074696D65202D2063757200
:100F500072656E7420636F6D6D616E643A2000502F
:100F60006C65617365207265736574005052494EFB
:100F70005445522048414C544544005072696E74A7
:100F800065722068616C7465642E206B696C6C28D6
:100F9000292063616C6C6564210A001FFFFFFFFF5D
:100FA000FFFF600000000001FF400000000000FFA4
:100FB0008000000000007F83CF00000C303F87FFDF
:100FC00080000C301F867980000C000F8C30C783A6
:100FD0008C30E78C30CFC7CC31F38C30DCECEC3389
:100FE000B98C30D86C6C33198C30D06C0C33198CB4
:100FF00030D86C0C33198C30DC6C0E3B198C30CF34
:101000007C079F198C30C77C038F194000000000BB
:101010000002600000000000061FFFFFFFFFFFF856
:101020002020506C616E6E65724275666665724214
:10103000797465733A20002046726565204D656DB0
:101040006F72793A2000436F6D70696C65643A2065
:101050004A756E20323220323032310A00207C2034
:10106000417574686F723A20286E6F6E652C20642B
:10107000656661756C7420636F6E666967290A0026
:10108000323031382D30382D303100204C617374BE
:1010900020557064617465643A2000312E312E3918
:1010A0000A004D61726C696E0020536F667477613F
:1010B00072652052657365740A0020576174636815
:1010C000646F672052657365740A002042726F77FF
:1010D0006E206F75742052657365740A0020457820
:1010E0007465726E616C2052657365740A00506F8E
:1010F00077657255700A0073746172740A0000009B
:101100000000000000000000000000004842000055
:10111000484200008040000000005761726E696E16
:10112000673A20486F6D696E672042756D70204484
:10113000697669736F72203C20310A000202040054
:1011400000A0400000A04000000040000016440045
:1011500000164400001644FFFFFF7C3C3E5E2B3D22
:101160003F2F5B5D3B2C2A225C0024F4D43050C31B
:101170008E20C2A24017828B7011127A910D816C61
:10118000D90AA861E108C7586607615143061E4B9A
:101190005D05C145A7041A411104093D9803713941
:1011A00031034036DB0265339102D4305402802E85
:1011B0001D02632CEE01752AC501B028A00110277D
:1011C00081018F2564012B244B01E0223401AC21E5
:1011D0001F018D200D01801FFC00841EED00971D56
:1011E000DF00B81CD200E61BC600201BBC00641A3E
:1011F000B200B219A8000A19A0006A189900D11704
:10120000910040178B00B516840031167E00B3158F
:1012100079003A157300C7146F0058146A00EE1372
:1012200066008813630025135E00C7125B006C1212
:10123000570015125400C111510070114F002111B7
:101240004B00D61049008D10470046104400021094
:101250004200C00F4000800F3E00420F3C00060FCE
:101260003B00CB0E3800930E37005C0E3500270E86
:101270003400F30D3200C10D3100900D3000600DCF
:101280002E00320D2D00050D2C00D90C2B00AE0CBC
:101290002900850C29005C0C2700350C27000E0C5A
:1012A0002600E80B2400C40B2400A00B23007D0BB8
:1012B00023005A0B2100390B2100180B2000F80ADB
:1012C0001F00D90A1E00BB0A1E009D0A1D00800ACD
:1012D0001D00630A1C00470A1B002C0A1B00110A90
:1012E0001A00F7091A00DD091900C4091900AB0931
:1012F0001900920917007B091800630917004C09AF
:10130000160036091600200916000A091500F5080E
:101310001500E0081400CC081400B8081400A40854
:101320001400900813007D0812006B081300580881
:101330001200460812003408110023081100120898
:10134000110001081100F0071000E0071000D0079D
:101350001000C0071000B0070F00A1071000910790
:101360000E0083070F0074070F0065070E00570774
:101370000E0049070E003B070D002E070E00200748
:101380000D0013070D0006070D00F9060C00ED0611
:101390000D00E0060C00D4060C00C8060C00BC06CC
:1013A0000C00B0060C00A4060B0099060C008D067C
:1013B0000B0082060B0077060B006C060B00610623
:1013C0000A0057060B004C060A0042060A003806BF
:1013D0000A002E060A0024060A001A060A00100651
:1013E000090007060A00FD050900F4050900EB05E0
:1013F0000900E2050900D9050900D0050900C70563
:101400000900BE050900B5050800AD050800A505E1
:1014100009009C050800940508008C050800840557
:1014200008007C050800740508006C0507006505C8
:1014300008005D050700560508004E050700470532
:1014400007004005080038050700310507002A0598
:101450000700230507001C050600160507000F05F9
:1014600007000805060002050700FB040600F50456
:101470000700EE040600E8040600E2040700DB04AF
:101480000600D5040600CF040600C9040600C30404
:101490000600BD040600B7040600B1040500AC0454
:1014A0000600A6040600A00405009B04060095049F
:1014B0000500900406008A040500850405008004E8
:1014C00006007A04050075040500700405006B042D
:1014D000050066040500610405005C04050057046E
:1014E0000500520405004D040500480405004304AE
:1014F00005003E0404003A040500350405003004EC
:1015000004002C04050027040400230405001E0425
:1015100004001A04040016040500110404000D045C
:101520000400090405000404040000040400FC0392
:101530000400F8030400F4030400F0030400EC03C7
:101540000400E8030400E4030400E0030400DC03F7
:101550000400D8030400D4030400D0030400CC0327
:101560000400C8030300C503030024F404D9201BAE
:10157000C40C5C0E9804C4095F0265077101F40590
:10158000F900FB04B30048048700C1036900580355
:10159000550003034500BE023A00840231005302A5
:1015A0002A002902250004022000E4011C00C801D1
:1015B0001900AF0117009801140084011300710194
:1015C00010006101100051010E0043010D003601B1
:1015D0000B002B010B0020010B00150109000C0171
:1015E000090003010800FB000800F3000800EB00FD
:1015F0000700E4000600DE000600D8000600D20066
:101600000600CC000500C7000500C2000500BD00B3
:101610000400B9000400B5000400B1000400AD00EE
:101620000400A9000400A5000300A20003009F001D
:1016300004009B0003009800030095000200930043
:101640000300900003008D0002008B00030088005F
:1016500002008600020084000300810002007F0077
:1016600002007D0002007B0002007900020077008A
:101670000100760002007400020072000100710097
:1016800002006F0002006D0001006C0002006A00A1
:1016900001006900020067000100660001006500AA
:1016A00001006400020062000100610001006000AE
:1016B00001005F0002005D0001005C0001005B00B2
:1016C00001005A00010059000100580001005700B4
:1016D00001005600010055000100540001005300B4
:1016E00000005300010052000100510001005000B1
:1016F00001004F0001004E0000004E0001004D00AF
:1017000001004C0001004B0000004B0001004A00AA
:1017100001004900010048000000480001004700A6
:1017200001004600000046000100450000004500A1
:10173000010044000100430000004300010042009A
:101740000000420001004100000041000100400093
:1017500001003F0000003F0001003E0000003E008D
:1017600001003D0000003D0001003C0000003C0085
:1017700000003C0001003B0000003B0001003A007B
:1017800000003A0001003900000039000100380073
:10179000000038000000380001003700000037006A
:1017A0000100360000003600000036000100350060
:1017B0000000350000003500010034000000340056
:1017C000000034000100330000003300000033004B
:1017D0000100320000003200000032000100310040
:1017E0000000310000003100010030000000300036
:1017F0000000300001002F0000002F0000002F002B
:1018000000002F0001002E0000002E0000002E001E
:1018100001002D0000002D0000002D0000002D0013
:1018200001002C0000002C0000002C0000002C0007
:1018300001002B0000002B0000002B0000002B00FB
:1018400001002A0000002A0000002A0000002A00EF
:1018500001002900000029000000290000002900E3
:1018600000002900010028000000280000002800D6
:1018700000002800000028000100270000002700C9
:1018800000002700000027000000270001002600BC
:1018900000002600000026000000260000002600B0
:1018A00001002500000025000000250000002500A3
:1018B0000000250000002500010024000000240095
:1018C0000000240000002400000024000100230088
:1018D000000023000000230000002300000023007C
:1018E000000023000000230001002200000022006D
:1018F0000000220000002200000022000000220060
:101900000100210000002100000021000000210052
:101910000000210000002100000021000100200043
:101920000000200000002000000020000000200037
:1019300000002000000020000000200001001F0027
:1019400000001F0000001F0000001F0000001F001B
:1019500000001F0000001F0001001E0000001E000C
:1019600000001E0000001E000000A32F00006321E5
:101970000000E3140000F20B00006F0600005903A2
:101980000000B5010000DD00000045312045727205
:101990003A204D415854454D50004D415854454D05
:1019A000502074726967676572656400453120452F
:1019B00072723A204D494E54454D50004D494E5497
:1019C000454D5020747269676765726564004D38D3
:1019D0003420582059205A2045204A204800202FE2
:1019E0000020403A0025753A253032750025303206
:1019F000753A253032750025756420253032753AE8
:101A00002530327500202020202020005A00590067
:101A100020202020005800092000000000000000C5
:101A20000000000000003FFFF00000000000000088
:101A300000000000003800700000000000000000FE
:101A40000000000030FC300000000000000000003A
:101A500000000020FC10000000000000000000005A
:101A600000002078100000000000000000000000CE
:101A70000020301000000000000000000000000006
:101A80002C00D03FC0000000000000000000002E2D
:101A900031D07FE0000000000000000000002F7B3C
:101AA000D07FE0000000000000000000002F7BD08D
:101AB0007FE0000000000000000000002E31D03F59
:101AC000C0000000000000000000002C00D03FC05B
:101AD000000000000000000000002030107FE00047
:101AE0000000000000000000002078107FE00000EF
:101AF000000000000000000020FC107FE00000005B
:101B00000000000000000030FC301F8000000000DA
:101B10000000000000003800700F0000000000000E
:101B200000000000003FFFF0060000000000000081
:101B300000000000000000000000000000000000A5
:101B40000000003FFFF00000000000000000000067
:101B500000003800700000000000000000000000DD
:101B6000003186300000000000000000000000008E
:101B70002387100000000000000000000000002784
:101B800087900000000000000000000000002F8788
:101B9000D00000000000000000000000002F03D073
:101BA0003FC0000000000000000000002030107F57
:101BB000E0000000000000000000002078107FE03E
:101BC000000000000000000000002078107FE0000E
:101BD0000000000000000000002030103FC00000A6
:101BE00000000000000000002F03D03FC0000000F4
:101BF000000000000000002F87D07FE00000000000
:101C00000000000000002787907FE0000000000037
:101C100000000000002387107FE0000000000000AB
:101C2000000000003186301F80000000000000002E
:101C30000000003800700F000000000000000000ED
:101C400000003FFFF0060000000000000000000060
:101C500000000000A4A5A6A7005072696E74696E0A
:101C6000672E2E2E005072696E7420706175736538
:101C700064005072696E742061626F7274656400F2
:101C8000AFB000F2F6CAF300F4F5CAF300F9A80009
:101C9000F1F2CAF300D8D900A4A500CFF000ECED12
:101CA000EEEF00CCADD1D200CCADD1D200D5D6D1A3
:101CB000D200D5D6D1D200D3D400D3D400D1D20013
:101CC000D1D200AEAFB0004D34323800C3C4205082
:101CD0004C4100C8C900C3C42041425300B5B6B747
:101CE000B8B9BA004D383400BEBFBBBCBDC0C100DE
:101CF000BBBCBD0047323800C1B2CE00AEAFB000B1
:101D0000C1B2205800C1B2205900C1B2205A00CC43
:101D1000ADBA204500CCADBA204A00CCADBA2048BF
:101D200000C1B220302E316D6D00C1B220316D6D19
:101D300000C1B22031306D6D00C1B2CE00CCADBA61
:101D4000204800CCADBA204A00CCADBA204500C135
:101D5000B2205A00C1B2205900C1B2205800CCAD07
:101D6000BA204800CCADBA204A00CCADBA2045001C
:101D7000C1B2205A00C1B2205900C1B2205800A4FB
:101D8000A500496E697469616C697A6520454550A2
:101D9000524F4D00D8D900526573746F726520663A
:101DA00061696C73616665004C6F6164206D656D7F
:101DB0006F727900496E697469616C697A65204552
:101DC0004550524F4D0053746F7265206D656D6FB5
:101DD00072790046696C616D656E7400DFB200C98E
:101DE000D200AEAFB000C3C42041425320BEBF00FA
:101DF000C3C420504C4120BEBF005049442D440074
:101E00005049442D44005049442D49005049442D27
:101E100049005049442D50005049442D500008209D
:101E2000DDDE000820DDDE000820DADC000820DA34
:101E3000DC000820DADB000820DADB00B52000B384
:101E40002000B1B2D8C900D5D6D1D200D5D6D1D2D2
:101E500000D3D400D3D400D8D90053746F72652056
:101E60006D656D6F727900D3D400D3D400D5D6D10F
:101E7000D200D5D6D1D200C9D20056547261762094
:101E80006D696E005654726176206D696E00566DF4
:101E9000696E00566D696E00566D61782048005677
:101EA0006D6178204800566D6178204A00566D615A
:101EB00078204A00566D6178204500566D61782083
:101EC0004500566D6178205A00566D6178205A00A1
:101ED000566D6178205900566D6178205900566D15
:101EE0006178205800566D6178205800DFB20041BB
:101EF0006D6178204800416D6178204800416D6136
:101F000078204A00416D6178204A00416D61782057
:101F10004500416D6178204500416D6178205A008F
:101F2000416D6178205A00416D6178205900416D02
:101F30006178205900416D6178205800416D6178C9
:101F4000205800412D74726176656C00412D7472C9
:101F50006176656C00412D72657472616374004135
:101F60002D7265747261637400416363656C004136
:101F70006363656C00DFB20056682D6A65726B00A2
:101F800056682D6A65726B00566A2D6A65726B0021
:101F9000566A2D6A65726B0056652D6A65726B0014
:101FA00056652D6A65726B00567A2D6A65726B00F4
:101FB000567A2D6A65726B0056792D6A65726B00D0
:101FC00056792D6A65726B0056782D6A65726B00C2
:101FD00056782D6A65726B00DFB2004873746570C5
:101FE000732F6D6D004873746570732F6D6D004AAB
:101FF00073746570732F6D6D004A73746570732F01
:102000006D6D004573746570732F6D6D004573744D
:102010006570732F6D6D005A73746570732F6D6DDD
:10202000005A73746570732F6D6D00597374657009
:10203000732F6D6D005973746570732F6D6D00583B
:1020400073746570732F6D6D005873746570732FA2
:102050006D6D00DFB20053746570732F6D6D004AB3
:1020600065726B00416363656C65726174696F6E64
:102070000056656C6F6369747900D8D90046696C45
:102080002E204469612E0046696C2E204469612E21
:1020900000B52000B320004520696E206D6D33002F
:1020A000D8D90043616E6E6F7420656E74657220BE
:1020B0007375626469723A2000022E2E00AEAFB0D2
:1020C00000A8A9ACAD00A8A9AAAB0000002100247B
:1020D0000027002A002D0030003300010100000419
:1020E0000107010A0100002200250028002B002E14
:1020F000003100340002010000050108010B01005D
:102100000020002300260029002C002F00320000B0
:102110000100000301060109010505050507050881
:10212000080808020202020A0A080804040404015A
:10213000010101010101010303030303030303047C
:102140000707070C0C0C0C0C0C0C0C02020202060C
:10215000060606060606060B0B0B0B0B0B0B0B01FC
:1021600002102020080810204010204080020102A8
:102170000108040201010204081020408080402070
:1021800010080402018004020180402010080402AB
:102190000108040201010204081020408001020429
:1021A000081020408000000A0B02090C0D0E0807E1
:1021B0000304010000000000000000000000000017
:1021C000000000000000000000000000000000000F
:1021D00000121110000000000000000000000000CC
:1021E00000000000000000000000006175746F2511
:1021F000692E67006572726F722077726974696EFA
:102200006720746F2066696C650A00456E6473749C
:102210006F707320256320256320256320256300CC
:10222000205A3A0020593A0020583A00656E6473EB
:10223000746F7073206869743A2000446F6E652073
:10224000736176696E672066696C652E0A004D328F
:102250003900022C2073797374656D2073746F706C
:1022600070656421204865617465725F49443A2055
:1022700000556E6B6E6F776E20636F6D6D616E646F
:102280003A2022004D3234004D3233202573005362
:10229000442063617264206F6B0A006F70656E5238
:1022A0006F6F74206661696C65640A00766F6C7587
:1022B0006D652E696E6974206661696C65640A00DB
:1022C000534420696E6974206661696C0A00577214
:1022D0006974696E6720746F2066696C653A2000C6
:1022E0006F70656E206661696C65642C2046696C50
:1022F000653A20006F70656E206661696C65642CBC
:102300002046696C653A200046696C652073656CEF
:1023100065637465640A002053697A653A20004653
:10232000696C65206F70656E65643A20002066698F
:102330006C653A2000646F696E6700667265736849
:10234000004E6F772000454E4420535542524F5562
:1023500054494E450A002220706F7300222070619C
:1023600072656E743A2200535542524F5554494E8D
:10237000452043414C4C207461726765743A2200D9
:102380004B494C4C45442E2000747279696E67208D
:10239000746F2063616C6C207375622D67636F646A
:1023A000652066696C6573207769746820746F6F47
:1023B000206D616E79206C6576656C732E204D41C1
:1023C00058206C6576656C2069733A004572726FAF
:1023D000723A006F70656E206661696C65642C20CE
:1023E00046696C653A200043616E6E6F74206F70B1
:1023F000656E2073756264697220006563686F3A68
:1024000000000C0B00FE070192032120FFFF0AFFD2
:1024100007FF00000006000A01070706020080808F
:102420008080800080030202060105A0A005070746
:102430000600005050F850F85050050707060000FD
:102440002078A07028F020050707060000C0C810FB
:10245000204098180507070600006090A040A8904B
:1024600068020303060104C0408003070706010059
:102470002040808080402003070706010080402024
:102480002020408005050506000120A870A8200531
:1024900005050600012020F820200203030602FFA4
:1024A000C04080050101060003F802020206020096
:1024B000C0C005050506000108102040800507077B
:1024C000060000708898A8C88870030707060100F6
:1024D00040C040404040E005070706000070880803
:1024E000708080F8050707060000F8102010080823
:1024F000F005070706000010305090F8101005078F
:1025000007060000F880F008088870050707060035
:1025100000708080F0888870050707060000F808C2
:10252000102020202005070706000070888870888A
:102530008870050707060000708888780808700210
:102540000505060200C0C000C0C00206060602FF64
:10255000C0C000C040800407070600001020408073
:10256000402010050303060002F800F804070706E0
:102570000000804020102040800507070600007002
:1025800088081020002005070706000070880868EA
:10259000A8A870050707060000708888F888888852
:1025A000050707060000F08888F08888F00507070F
:1025B000060000708880808088700507070600008C
:1025C000F08888888888F0050707060000F8808072
:1025D000F08080F8050707060000F88080F0808012
:1025E00080050707060000708880B8888870050796
:1025F00007060000888888F888888801070706028F
:1026000000808080808080800507070600003810E9
:1026100010101090600507070600008890A0C0A069
:102620009088050707060000808080808080F8057C
:10263000070706000088D8A8888888880507070645
:1026400000008888C8A898888805070706000070D9
:10265000888888888870050707060000F08888F059
:1026600080808005070706000070888888A8906829
:10267000050707060000F08888F0A0908805070786
:10268000060000788080700808F005070706000043
:10269000F8202020202020050707060000888888D1
:1026A0008888887005070706000088888888885011
:1026B000200507070600008888888888A850050735
:1026C0000706000088885020508888050707060004
:1026D0000088888850202020050707060000F80899
:1026E00010204080F8030707060000E0808080800B
:1026F00080E005050506000180402010080307075B
:10270000060000E02020202020E00503030600044E
:10271000205088050101060000F8020202060205A9
:1027200080400505050600007008788878050707D1
:102730000600008080B0C88888F005050506000006
:102740007080808870050707060000080868988870
:1027500088780505050600007088F8807005070771
:102760000600003048E0404040400506060600FFF5
:102770007088887808700507070600008080B0C858
:10278000888888010707060200800080808080809A
:102790000308080601FF200020202020A040040795
:1027A00007060100808090A0C0A0900307070601E3
:1027B00000C04040404040E0050505060000D0A8AC
:1027C000A8A8A8050505060000B0C88888880505E2
:1027D0000506000070888888700506060600FFF070
:1027E0008888F080800506060600FF7888887808CB
:1027F00008050505060000B0C880808005050506AF
:10280000000070807008F00407070600004040E0F8
:102810004040403005050506000088888898680516
:10282000050506000088888850200505050600007B
:102830008888A8A850050505060000885020508803
:102840000506060600FF88888878087005050506D5
:102850000000F8102040F803070706010020404060
:102860008040402001070706020080808080808031
:102870008003070706010080404020404080050299
:1028800002060003689000000006000A0000000C29
:10289000000A0000000C000A0000000C000A000002
:1028A000000C000A0000000C000A0000000C000AE6
:1028B0000000000C000A0000000C000A0000000CE0
:1028C000000A0000000C000A0000000C000A0000D2
:1028D000000C000A0000000C000A0000000C000AB6
:1028E0000000000C000A0000000C000A0000000CB0
:1028F000000A0000000C000A0000000C000A0000A2
:10290000000C000A0000000C000A0000000C000A85
:102910000000000C000A0000000C000A0000000C7F
:10292000000A0000000C000A0000000C000A000071
:10293000000C000A0000000C000A0B0B160C00FF34
:10294000FFE00200020004000D0014802440C420B7
:102950000400040004000B0B160C00FFF9008A00B1
:10296000ABE0AC40AA40AA40AA40AA802100528015
:102970008C600B0B160C00FF240024003F804400E9
:1029800084000400FFE00A0011002080C0600B0BEF
:10299000160C00FF240024003FC044000400FFE0A8
:1029A000090009001120212040E00B0B160C00FF4C
:1029B00020003DE0512091201120FF2011202920EE
:1029C00025E0452080000B0B160C00FF20807FC007
:1029D0000840FFE0110020805F4080203F80000021
:1029E0007FC00B0B160C00FF224047E09480E48070
:1029F0002FE04480F48007E03480C48007E00B0BB4
:102A0000160C00FF04808FE0490019002FC0090058
:102A100009002FC0490089000FE00B0B160C00FFC6
:102A200010003F8051000E003180C0603F80248044
:102A30003F8024803F800B0B160C00FF2280FA4061
:102A400007E0FA808A808A80FA802280B280AAA079
:102A500064E00B0B160C00FF222047409280EFE051
:102A6000220047C0EC4007C03440C7C004400B0BF5
:102A7000160C00FF08000FC008000800FFE0080067
:102A80000E0009800840080008000A0B160C00FF21
:102A9000FF800080008080808080FF808000800038
:102AA000804080407FC00B0B160C00FF47C04100E8
:102AB000EFE0410045006960C9204D6049204FE0CA
:102AC000C8200B0B160C00FF0800040004000A00CD
:102AD0000A000A00110011002080404080200B0BEA
:102AE000160C00FF22402200F7E0220023E03520F0
:102AF000E52025402880294072200B0A140C000094
:102B00004440444044407FC00400040084208420AA
:102B10008420FFE00B0B160C00FF040000007FC0B8
:102B20000400040004007FC0040004000400FFE06F
:102B30000B0B160C00FFFFE0110001C0FE004880E7
:102B400025000400FFE015002480C4600B0B160C68
:102B500000FF11007FC044407FC044407FC004009C
:102B6000FFE0040004000400090B160C00FF100035
:102B7000FF8080808080FF8080808080FF808080D8
:102B80008080FF800B0B160C00FF7100010003E03A
:102B9000F9202120412051208920FA20022004C060
:102BA0000B0B160C00FF7FC011001100110011006B
:102BB000FFE0110011002100210041000B0B160C59
:102BC00000FF21002200F44057E0502057C09440FD
:102BD0005440244057C094400B0B160C00FF1100CA
:102BE0000A007FC004000400FFE004000A00110096
:102BF0002080C0600A0B160C00FF5FC000408440BC
:102C00008440BF4084408C409440A4408C4081C0AC
:102C10000B0B160C00FF240027C024002400FFE04B
:102C200000001440248047000C0070000B0B160CB1
:102C300000FF248004800FC0E48024803FE02480D3
:102C40002480288050008FE00B0B160C00FF08003A
:102C50000800FF8088808880FF8088808880FFA0AF
:102C6000882007E00B0B160C00FF27802480F480DF
:102C7000248074806C80A480248024A028A03060EC
:102C80000A0B160C00FFFFC0804080409E4092401F
:102C900092409E4080408040FFC080400B0B160C4D
:102CA00000FF7FC044005FC050405FC050405FC025
:102CB00042004A805240A6200B0B160C00FF040075
:102CC00007E004007FC04040404040407FC000001B
:102CD000524089200B0B160C00FF47802480048093
:102CE0000480E86020002FC024402280310026C0EC
:102CF0000B0B160C00FF7FC04A407FC00400FFE0B2
:102D000004003F80208024802480FFE00B0B160C01
:102D100000FF22004FE048204FE0C8004FE04AA0EB
:102D20005AA06FE04AA048600B0B160C00FFF3C0DE
:102D300024402A80F100228065E07220A540208096
:102D400023002C000B0B160C00FF0400FFE080207A
:102D50000000FFE00400240027C0240054008FE09E
:102D60000B0B160C00FF73E01080510023E0FA20DB
:102D70002AA022A022A02080214062200B0B160C4A
:102D800000FF2200F78022803680E2A025A0246088
:102D900068200000524089200B0B160C00FF73C006
:102DA000420042007BE04A404A407A404A4042406A
:102DB000444088400B0B160C00FF0800FFE00800A1
:102DC0001FC030405FC090401FC01040104010C076
:102DD0000B0B160C00FF02007FE0420042005FC0B8
:102DE000420047004A805240622082000B0B160CC2
:102DF00000FFF3C096409180A660A10097C09100AB
:102E00009500E7E0810081000B0B160C00FF0F809E
:102E100088804F8008808F8040001FC0354055401B
:102E200095403FE00B0B160C00FF27E02080F88058
:102E3000208020803880E080208020802080618079
:102E40000B0B160C00FF1FE0910057C0144017C079
:102E5000944057C011005540992023000B0B160CCD
:102E600000FF208027E0F240218022403420E24011
:102E700022402240224064400B0B160C00FF410010
:102E800041004FE0E920492049206FE0C920492056
:102E90004920CFE00B0B160C00FF2100F1004FE0A2
:102EA000A920F9202FE03920E92029202FE028202F
:102EB0000B0B160C00FF8FE049200920CBA0492006
:102EC0004FE048204BA04AA06BA050E00B0B160C23
:102ED00000FF7FC004004440244024800400FFE041
:102EE00004000400040004000B0B160C00FF820019
:102EF00042001FE0C2005FC052405FC047004A80EE
:102F00005240BFE00B0B160C00FF04007FE048802E
:102F10007FE048804F8040005FC048404780986015
:102F20000B0B160C00FF0100EFE0A100A440AFE086
:102F3000A440AFE0A920E92002800C600B0B160C26
:102F400000FF14C0F6A0BC60A780A880BFE0A92045
:102F5000EFE009200FE009200B0B160C00FF7F802B
:102F600040804280628054804880488054A062A0A3
:102F7000406080200B0B160C00FF04007FE0402017
:102F80007FE040007DE054204CA0546064A08D6040
:102F90000B0B160C00FF82005FE0040008409FE06E
:102FA00040200A800A804AA092A022600B0B160CD7
:102FB00000FF41004FE0E820428044406820C7C045
:102FC000410041004100CFE00B0B160C00FF5020E8
:102FD0007D209120FF2011207D2055205520542058
:102FE0005C2010E00B0B160C00FF3F8020803F8020
:102FF0002080FFE048007BC0494079404880FB606A
:103000000B0B160C00FF0400040004002480244075
:10301000444044208420040004001C000B0B160CC8
:1030200000FF040004000400FFE004000A000A009E
:10303000110011002080C060090A140A0000888075
:1030400049000800FF80008000807F8000800080B1
:10305000FF800B0B160C00FF21001200FFE00000A8
:1030600078804A807A804A807A80488059800B0B29
:10307000160C00FF27C000000000EFE02100220036
:1030800024402FE0202050008FE00B0B160C00FF97
:1030900020802700F90021C077002100F9E02700F7
:1030A0007120A92020E00B0B160C00FF10401040EF
:1030B000FDE0104038C03540524094401040104070
:1030C00010C00B0B160C00FF0040F8400BE008404E
:1030D00088405240514021405040484089C00A0B2E
:1030E000160C00FF840084408480F5008600840074
:1030F00084009400A440C44083C00B0B160C00FF56
:1031000011207D001100FFE02900FD4049407C8036
:1031100008A0FD600A200B0B160C00FF17C024400E
:10312000244067C0A1002FE02100238025402920F2
:1031300021000B0B160C00FF0800FFE0100027C059
:1031400020806100AFE021002100210023000B0B53
:10315000160C00FF24002FE0B400A480A4A0AAC095
:103160002A8028802940324024200B0B160C00FFB7
:103170007FE080003FC020403FC010001FC01040D3
:103180002880470038E00B0B160C00FF7FE0400062
:10319000400040004000400040004000400040002F
:1031A00080000B0B160C00FFFFE004007FC04440C2
:1031B0007FC044407FC0440024001800E7E00B0BB0
:1031C000160C00FF11E0FD00450029E0FD40114014
:1031D0007D4011405540924034400B0B160C00FFCF
:1031E00021005FE04000CFC040004FC040004FC012
:1031F00048404FC048400B0B160C00FF04007FC036
:1032000040407FC040407FC040407FC004405220CB
:10321000BFA00B0B160C00FF7FC044407FC0444092
:103220007FC004001B00E0E01100110061000B0BE7
:10323000160C00FFFFE0040008007FE049204F204B
:1032400049204F20492049207FE00B0B160C00FF3E
:10325000FDE056407940388055409220FFE0040060
:1032600027C02400FFE00B0B160C00FFFB80520070
:103270007BE01240FA4014403F8020803F80208055
:103280003F800B0B160C00FF1FE0200027C064409E
:10329000A7C020002FE0282027C0210023000B0B0F
:1032A000160C00FFF3E082208220FA208220822088
:1032B0008A20B220C2E0020002000B0B160C00FFB5
:1032C000248046A095C0E48027E04480F5C006A095
:1032D0003480C48007E00B0B160C00FF27C04100B0
:1032E00087E0E02022804580F2800FE03080C140FE
:1032F00002200B0B160C00FF02000200220023C06C
:10330000220022002200220022002200FFE0090BFE
:10331000160C00FF08000800FF80888088808880E5
:10332000FF80888088808880FF800B0B160C00FF50
:10333000210053A04100F7E0510053C0564053C054
:103340005A4053C042400B0B160C00FF7FC00400D4
:1033500004000400FFE00A000A00120022204220BC
:1033600081E00B0B160C00FF110021002FE0610023
:10337000A3802380254025402920210021000B0B1C
:10338000160C00FFF7E09420F42097E09480F4807E
:1033900097E09480F4A0966004200B0B160C00FFBD
:1033A0007BE0948004007FC00400FFE00100FFE0A8
:1033B0002100110007000B0B160C00FF210047C075
:1033C00091002FE06080AFE0208024802280208068
:1033D00023800B0B160C00FF27C02440F7C02EE003
:1033E0002AA03EE0E1002FE02380254069200B0B5E
:1033F000160C00FF140027E02A006200A3C0220080
:10340000220023E022002200220000060900FE0024
:103410000000000001090008FE0000050808060081
:103420000040F0C88888987810050808060000C099
:10343000F88888888888F80505050600012030F896
:1034400030200508080600002070F820202020E029
:103450000509090600FF2070A8A8B8888870200513
:1034600009090600FFE080C0B0A828302828050917
:10347000090600FFF8A88888888888A8F8050A0A3D
:103480000600FE205050505088A8A88870030303FF
:1034900006000340A040C3DEA5DE11241FBECFEF0F
:1034A000D1E2DEBFCDBF00E00CBF13E0A0E0B2E090
:1034B000EAE6FCED01E00BBF02C007900D92AC36CE
:1034C000B107D9F725E1ACE6B3E001C01D92AB3CF2
:1034D000B207E1F71AE1CCE4DAE100E006C0219797
:1034E0000109802FFE010E9496EDCB34D10780E0C8
:1034F0000807A9F70E949EDF0C9424EE0C940000AC
:1035000008952CEA35EC47E25EE36091360670914F
:10351000370680913806909139060E947BEB6093C4
:103520003A0670933B0680933C0690933D060895BF
:103530002CEA35EC47E25EE360913E0670913F066F
:1035400080914006909141060E94CCE6609342062D
:1035500070934306809344069093450608956091C6
:103560001B0270911C02072E000C880B990B0E9405
:103570006DE62AE037ED43E25CE30E94CCE6209161
:1035800010063091110640911206509113060E94C8
:10359000CCE660934D0270934E0280934F0290935D
:1035A000500208951198000000000000909102015F
:1035B00087FD90959170909300010000000091E0CC
:1035C0009A950000E9F7119A000000000000119898
:1035D0000000000000009091020186FD909591701E
:1035E000909300010000000091E09A950000E9F737
:1035F000119A000000000000119800000000000077
:103600009091020185FD90959170909300010000CA
:10361000000091E09A950000E9F7119A000000007F
:10362000000011980000000000009091020184FD4C
:1036300090959170909300010000000091E09A95A0
:103640000000E9F7119A0000000000001198000046
:10365000000000009091020183FD9095917090937D
:1036600000010000000091E09A950000E9F7119A2E
:103670000000000000001198000000000000909180
:10368000020182FD9095917090930001000000006E
:1036900091E09A950000E9F7119A000000000000FF
:1036A00011980000000000009091020181FD9095AA
:1036B0009170909300010000000081E0982F9A958E
:1036C0000000E9F7119A00000000000011980000C6
:1036D00000000000909102019170909300010000A1
:1036E00000008A950000E9F7119A00000000000030
:1036F00008958F929F92AF92BF92CF92DF92EF92F6
:10370000FF920F931F93CF93DF93B0E4A0E06A2F53
:1037100070E0AB014B0F511D559547954A1711F0BD
:10372000B41319C0EFE8F2E065917491072E000C14
:10373000880B990B0E946DE6DF91CF911F910F913D
:10374000FF90EF90DF90CF90BF90AF909F908F90C1
:103750000895B42FDECF9A0121503109220F331F73
:10376000220F331FF901EF56FE4FE590F490F90157
:10377000EB56FE4FC591D4918E159F0554F3A42F9F
:10378000C817D9070CF4C3CFF901ED56FE4F0591C8
:103790001491F901E956FE4FC590D490BC016E1901
:1037A0007F09072E000C880B990B0E946DE64B01D8
:1037B0005C01B601601B710B072E000C880B990B86
:1037C0000E946DE69B01AC01C501B4010E94CCE6EC
:1037D0004B015C01BE016E197F09072E000C880B9E
:1037E000990B0E946DE69B01AC01C501B4010E94DA
:1037F0007BEB6B017C01B801110F880B990B0E94C8
:103800006DE69B01AC01C701B6010E949FEA94CF0F
:1038100010920F061092A2051092A3051092A40513
:103820001092A5051092A6051092A7051092A80562
:103830001092A90510929E0510929F051092A00566
:103840001092A105089590916F00292F227091FF89
:1038500005C090916F009D7F90936F0034E0839F2F
:10386000C0011124FC01EA57FA4F40815181628165
:10387000738186589A4FFC0140835183628373831E
:1038800081E080937905222329F080916F00826086
:1038900080936F0008958091200580FF38C0899A39
:1038A0008FEF809309028091200581FF33C08F9AAA
:1038B0008FEF80930A028091200582FF2EC08091B5
:1038C0000B018270809309018FEF80930B0280912E
:1038D000200583FF2AC016988FEF80930C028091F9
:1038E000200585FF25C08091080182708093060124
:1038F0008FEF80930E028091200584FF21C04398B2
:103900008FEF80930D020000000000000895899859
:1039100081E0C7CF8F9881E0CCCF80910B0180955B
:1039200082708093090181E0D0CF169A81E0D5CFD3
:1039300080910801809582708093060181E0D9CF43
:10394000439A81E0DECF4F925F926F927F928F9287
:103950009F92AF92BF92EF92FF920F931F93CF93DC
:10396000DF93C1E5D6E08EE8E82E8EE0F82E03ED79
:1039700018E0412C512C320143946991799189913D
:103980009991F70181909190A190B1907F010E944F
:103990006BE6A50194010E94CCE60E94E8EBF801D9
:1039A00061937193819391938F0146165706680630
:1039B000790610F42B013C01F6E0C936DF07E9F681
:1039C0006FEF7FEFCB01A30192010E9441EA2093A8
:1039D000EB083093EC084093ED085093EE08DF912C
:1039E000CF911F910F91FF90EF90BF90AF909F905C
:1039F0008F907F906F905F904F900895A4CFCF935A
:103A0000DF9390916F00292F227091FF05C0909154
:103A10006F009D7F90936F0094E0899FA001112417
:103A2000FA01EA57FA4F60817181828193812223E2
:103A300029F020916F00226020936F00EA01C55E9B
:103A4000D64F0E946DE6288139814A815B810E94B0
:103A5000CCE6DF91CF910895CF92DF92EF92FF9263
:103A600080916D06882309F457C0C0906906D090F4
:103A70006A06E0906B06F0906C0620E030E0A90149
:103A8000C701B6010E9467E6882309F445C020E01B
:103A900030E040E05FE3C701B6010E94CCE69B0145
:103AA000AC010E94CCE62BED3FE049E450E40E94DB
:103AB000CCE69B01AC0160E070E080E89FE30E94EF
:103AC0007BEB6B017C01C0921006D0921106E09254
:103AD0001206F092130660911B0270911C02072ED1
:103AE000000C880B990B0E946DE62AE037ED43E24B
:103AF0005CE30E94CCE6A70196010E94CCE66093AD
:103B00004D0270934E0280934F0290935002FF90AB
:103B1000EF90DF90CF900895C12CD12C80E8E82E53
:103B20008FE3F82ED0CF80916F00982F927081FF95
:103B300005C080916F008D7F80936F0010921309F4
:103B4000109214091092150910921609992329F060
:103B500080916F00826080936F0008950F931F9390
:103B600080912A1190912B11891B8F7009F449C003
:103B700090912711992361F0833040F48FEF890FE2
:103B800029F08093271190E080E038C0109227112F
:103B900080912B1125E5829FC0011124835C964FF3
:103BA000FC01208120FDEFCF4091130950911409B1
:103BB0006091150970911609EF5AFF4F008111812C
:103BC00022813381401B510B620B730B409313090D
:103BD00050931409609315097093160920912B11C5
:103BE0002F5F2F702093281130912B1120912911D4
:103BF000321304C020912811209329111F910F9195
:103C0000089591DFC0CF80911B0590911C052FEF87
:103C10003FEF981751F0E92FF0E0E556FB4F208178
:103C200030E09F5F9F7790931C05C9010895CF9264
:103C3000DF92EF92FF92CF93DF93EC01C0902006CA
:103C4000D0902106E0902206F0902306A70196016D
:103C5000688179818A819B810E9467E687FF04C021
:103C6000C882D982EA82FB82C0902406D0902506C1
:103C7000E0902606F0902706A70196016C817D81D1
:103C80008E819F810E9467E687FF04C0CC82DD821F
:103C9000EE82FF82C0901F02D0902002E0902102AD
:103CA000F0902202A7019601688179818A819B8127
:103CB0000E94C5EC181624F4C882D982EA82FB82DD
:103CC000C0902302D0902402E0902502F0902602BA
:103CD000A70196016C817D818E819F810E94C5EC38
:103CE000181624F4CC82DD82EE82FF82C090280672
:103CF000D0902906E0902A06F0902B06A7019601A5
:103D0000688579858A859B850E9467E687FF04C060
:103D1000C886D986EA86FB86C0902702D090280202
:103D2000E0902902F0902A02A70196016885798522
:103D30008A859B850E94C5EC181624F4C886D9860E
:103D4000EA86FB86DF91CF91FF90EF90DF90CF90D6
:103D500008955F9A8091F8058E7F8093F8058A9A7E
:103D60008091F8058D7F8093F805809108018095FA
:103D70008170809306018091F8058B7F8093F80510
:103D8000129A479A8D9A0895CF93DF9380E037DE99
:103D9000C2E4D4E0688379838A839B8381E02FDE49
:103DA0006C837D838E839F8382E029DE6887798799
:103DB0008A879B87DF91CF9108950F931F93CF93AD
:103DC000DF9394E0899FE00111248E010C5E194F6E
:103DD000FE01E959FB4FDE01A958BB4F2D913D91E2
:103DE0004D915C9160817181828193810E949FEAF3
:103DF000F8016083718382839383FE01E65CF74F51
:103E000085919591A591B491FE01E05EF94F808373
:103E10009183A283B383FE01EA5BF74F859195916D
:103E2000A591B491C15EDD4F88839983AA83BB833A
:103E3000DF91CF911F910F91089590919406E92FF2
:103E4000F0E0ED58FB4F80839F5F943040F49093F7
:103E5000940680918B088F5F80938B080895109251
:103E60009406F7CF2FEB280F2A3108F042C0E22F3B
:103E7000F0E08091390490913A04A0913B04B09114
:103E80003C0404C0B695A795979587952A95D2F7D7
:103E900080FD02C081700895E15EFB4FE081EE235A
:103EA00029F18091B7089091B808E80FF92FF11D1A
:103EB000808190ED980F9A3030F08E3251F48181EC
:103EC00080538A3098F4F0937303E093720381E097
:103ED00008958D3211F08B3249F4818190ED980F65
:103EE0009A3088F38E3211F48281EACFF0E0E0E07C
:103EF000EACF80E00895B6DF882341F081E0209189
:103F0000720330917303232B09F480E00895CF935B
:103F1000DF9380917103659961C081608093710323
:103F20008091710364995CC080618093710390916A
:103F300003018091710391FD55C0826080937103EC
:103F4000909103018091710390FD4EC08062809337
:103F50007103809171034B9949C084608093710310
:103F6000809171034A9944C0806480937103C09129
:103F70006A05C0FF0FC0809171039091200590FFEA
:103F800039C080FF07C080919506816080939506B7
:103F900080E059DCC1FF0FC0809171039091200532
:103FA00091FF2EC081FF07C08091950682608093AB
:103FB000950681E048DCC2FF2FC08091710390918B
:103FC000200592FF23C082FF27C080919506846060
:103FD0008093950682E0DF91CF9135CC8E7F9ECF86
:103FE0008F7EA3CF8D7FAACF8F7DB1CF8B7FB6CFB2
:103FF0008F7BBBCF84FFCECF809195068061C6CFEB
:1040000085FFD9CF809195068062D1CF86FF04C00D
:10401000809195068064DCCFDF91CF91089508955B
:1040200090E080E00895CF92DF92EF92FF92CF93DD
:10403000C82F0E9422C26B017C0124EA30E74DE7C1
:104040005FE360912C0670912D0680912E06909171
:104050002F060E9467E687FD18C08AEF90E0A0E077
:10406000B0E08C0D9D1DAE1DBF1D80938706909303
:104070008806A0938906B0938A06C0934002CF9128
:10408000FF90EF90DF90CF90089580E090E0DC010A
:10409000E8CF0F931F9380910F06813019F50E948E
:1040A00022C20091A2051091A3052091A405309190
:1040B000A505601B710B820B930B28EE33E040E0EB
:1040C00050E00E9441EA60919E0570919F058091A9
:1040D000A0059091A105620F731F841F951F1F916A
:1040E0000F9108956091A6057091A7058091A8058C
:1040F0009091A905D6CF80910F068130E1F08230F2
:10410000C1F4C7DF60939E0570939F058093A0055F
:104110009093A10581E080930F060E9422C26093D4
:10412000A2057093A3058093A4059093A50581E053
:1041300008956EDBEFCF80E0089580910F06813007
:1041400079F482E080930F060E9422C26093A60554
:104150007093A7058093A8059093A90581E0089521
:1041600080E00895CF93DF9300D01F92CDB7DEB7E4
:10417000882349F00E94D7D00F900F900F900F9096
:10418000DF91CF91089588EB91E09C838B8384E14C
:1041900090E09A838983BE016D5F7F4FCE010196C7
:1041A0000E94BAAAE9CF9F92AF92BF92CF92DF92BC
:1041B000EF92FF920F931F93CF93DF935B01E9017F
:1041C0004A3009F4B2C0453109F068C0DB011296EB
:1041D000ED91FC91F280C681D7818091020180959A
:1041E00082708093000188E290E00197F1F7EF2C54
:1041F000E29420EFE22230E1932E9F0C48E2C42E9D
:10420000D12C88EFCFD9C6010197F1F7BFE1BF15D7
:1042100008F47BC08F2D80778068C4D98E2DC2D9D9
:10422000C6010197F1F780E8BDD980E0BBD9C6018E
:104230000197F1F78AEFB6D9C6010197F1F78E0120
:10424000005F1F4F8881807FADD989918295807FE3
:10425000A9D9C017D107B1F7C6010197F1F7F394B7
:10426000E0E1EE0EF910CDCF8091020182708093D3
:104270000001D5011296CD91DC91CE010E94DCC3E4
:104280008111F5C1DF91CF911F910F91FF90EF90B8
:10429000DF90CF90BF90AF909F900895FB01028177
:1042A0001381423309F49EC108F4A2C1463409F4D3
:1042B0008FC1473409F492C14B3329F589812B8191
:1042C000D80112966C91129713964C91213009F4F3
:1042D000E5C1233009F0AFC138EF380F582F91E016
:1042E000431708F490E041E0531708F040E031E054
:1042F000561708F430E0592F542B352309F0C3C169
:10430000942309F0C0C181E0BDCF80EE8F0D80689D
:10431000807F48D98F2D8295807F44D9C60101972F
:10432000F1F780E83FD980E881CF80910101826078
:10433000809301018091020182708093000180913D
:10434000010181608093010180910201817080935D
:104350000001099A119A80910201809582708093E0
:10436000000188E290E00197F1F788E790E0CEE95C
:10437000DFE0FE013197F1F70197D9F788EF12D905
:1043800008E210E0C8010197F1F780E20BD980E064
:1043900009D9C8010197F1F780E004D980E802D972
:1043A000C8010197F1F780E0FDD880E1FBD8C80192
:1043B0000197F1F7CE010197F1F7CE010197F1F7DF
:1043C000CE010197F1F7CE010197F1F7CE010197E8
:1043D000F1F7CE010197F1F7CE010197F1F7CE0188
:1043E0000197F1F7CE010197F1F7CE010197F1F7AF
:1043F000CE010197F1F7CE010197F1F7CE010197B8
:10440000F1F7CE010197F1F72197F1F780E2CAD8D1
:1044100080E4C8D8C8010197F1F780E2C3D880E6EC
:10442000C1D8C8010197F1F7E12CF12CC1E08F2D23
:1044300080778068B7D88E2DB5D8C8010197F1F77D
:1044400080E8B0D880E0AED8C8010197F1F78AEFD4
:10445000A9D8C8010197F1F7D0E211980000000037
:104460000000809102018170809300010000000033
:104470008C2F8A950000E9F7119A000000000000D7
:10448000119800000000000080910201817080936B
:104490000001000000008C2F8A950000E9F7119AB6
:1044A0000000000000001198000000000000809152
:1044B0000201817080930001000000008C2F8A951A
:1044C0000000E9F7119A00000000000011980000B8
:1044D00000000000809102018170809300010000C3
:1044E00000008C2F8A950000E9F7119A0000000067
:1044F000000011980000000000008091020181700E
:1045000080930001000000008C2F8A950000E9F7DD
:10451000119A000000000000119800000000000047
:1045200080910201817080930001000000008C2FB7
:104530008A950000E9F7119A000000000000119828
:104540000000000000008091020181708093000152
:10455000000000008C2F8A950000E9F7119A0000F6
:10456000000000001198000000000000809102018E
:10457000817080930001000000008C2F8A9500005C
:10458000E9F7119A00000000000080E00BD8C80194
:104590000197F1F7D15009F060CF88EF03D8C80137
:1045A0000197F1F7F39480E1E80EA0E2FA123FCF11
:1045B00080E00E94D21A80EC0E94D21AC8010197B2
:1045C000F1F78091020182708093000181E05ACE60
:1045D000D80115968C91888381E054CEF8018181B1
:1045E0008883FACFB901C8010E94C6C381E04ACED0
:1045F000443171F0473109F086CE1882F80182818A
:104600008983858181508A8383818B8381E03ACE3F
:10461000D80115964C91159750E0440F551F70E046
:1046200060E016968D919C910E94BCEDC8010E949D
:10463000F2C381E027CE481708F465CE861708F448
:1046400062CEFA80E12CD12C243070F41DC0BE0162
:10465000C8010E94C6C3898198819D0D98838E0DE3
:104660008983FF0C09F44FCEF7FEF6CFF0CF4D81D2
:1046700050E0440F551F70E060E08E819F810E94E2
:10468000BCED81E0FFCDFA8030E0F901E850FD4F4C
:10469000D0802C503D4FF901E080E6CF58E0580F14
:1046A000382F1DCEDF92EF92FF920F931F93CF937F
:1046B000DF93EC01D62E1CAD0BAD7C0184E0E80E3F
:1046C000F11CE98DFA8DC7011995412F480F2D2D49
:1046D000602FC7010E9467C69BAD890F8BAF81E039
:1046E00090E0DF91CF911F910F91FF90EF90DF90BD
:1046F00008958091BB059091BC050E94791B609341
:104700000B0670930C0680930D0690930E06A895E9
:104710001092BD0508958F929F92AF92BF92EF9233
:10472000FF920F931F93CF93DF9300D01F92CDB7CB
:10473000DEB78C017B018091520290915302A091CF
:104740005402B091550289839A83AB83BC8370E095
:1047500060E0C8010E949CC087FD9AC080E2E81614
:1047600082E0F8060CF043C0D80112968C911297A3
:1047700028E532E0281B310987FD3395220F331FCE
:10478000220F331F032E000C440B550B11968C91F6
:1047900098E8892E912C881A910887FD9394880CAB
:1047A000991C880C991C092C000CAA08BB0860E015
:1047B00070E0CB01F7FC0AC0B701653B710514F04E
:1047C00064EB70E0072E000C880B990B281939094F
:1047D0004A095B090E9432EA24EB30E040E050E0F5
:1047E0000E9463EA820E931EA41EB51E7401D801B6
:1047F000EC91E43208F511962C91119788E890E03D
:10480000821B910927FD9395880F991F880F991F87
:10481000E816F90664F502974FB7F8942E2F30E0AA
:10482000F901EE0FFF1FE20FF31FEC5BFE4E880F46
:10483000991F928381834FBFD801EC91F0E0EE0F76
:10484000FF1FEC0FFD1F6181728190E080E00F90EF
:104850000F900F900F90DF91CF911F910F91FF90CC
:10486000EF90BF90AF909F908F900C94B3D0129622
:104870002C9188E592E0821B910927FD9395880F82
:10488000991F880F991FE816F9062CF6C701C3CFA8
:104890000F900F900F900F90DF91CF911F910F917C
:1048A000FF90EF90BF90AF909F908F900895CF9220
:1048B000DF92EF92FF920F931F93CF93DF936B01E1
:1048C0007A01EC01C35EDA4F28813CE0389F800119
:1048D000399F100D112427FF24C0FB011182108283
:1048E00088818F5F888388819801280F311D87FD1B
:1048F0003A95C9012091B011F6012817190629F03F
:1049000024F088818C300CF43CC080819181049625
:1049100080349C4908F475C0F60180819181049629
:1049200072C088819801280F311D87FD3A95C90111
:104930002091B0112817190699F294F28881A801E4
:10494000480F511D87FD5A95FA01EE0FFF1FE40F26
:10495000F51FEC5BFE4E808186FFC2CF8881F80197
:10496000E80FF11D87FDFA95CF01EE0FFF1FE80F4D
:10497000F91FEC5BFE4E808160E08F730E949FBF49
:10498000AFCF808191812881A801420F511D27FD61
:104990005A959A01FA01EE0FFF1FE20FF31FEC5B2D
:1049A000FE4E21813281820F931FF7019183808314
:1049B00088819801280F311D87FD3A95F901EE0F86
:1049C000FF1FE20FF31FEC5BFE4E808186FF20C0CD
:1049D0008881080F111D87FD1A95F801EE0FFF1F42
:1049E000E00FF11FEC5BFE4E808161E08F73DF9181
:1049F000CF911F910F91FF90EF90DF90CF900C948B
:104A00009FBF80E49CE9F701918380838FEF8883C7
:104A1000DF91CF911F910F91FF90EF90DF90CF909A
:104A200008952F923F924F925F926F927F928F9252
:104A30009F92AF92BF92CF92DF92EF92FF920F932D
:104A40001F93CF93DF9300D000D0CDB7DEB79A830A
:104A500089830E9422C2A981BA811696CD90DD90E9
:104A6000ED90FC901997C114D104E104F10409F010
:104A700010C31C962C911C97222309F44DC01A9642
:104A8000EC911A9721501C962C931C9721E02E0F25
:104A90001A962C931A971D963C911D97231302C0CA
:104AA0001A961C92F0E03196EE0FFF1FEE0FFF1FDB
:104AB00029813A81E20FF31FC284D384E484F58410
:104AC000D9011296CD92DD92ED92FC9215976C0D64
:104AD0007D1D811D911DF9016683778380879187F4
:104AE00084819581892BC1F0FFB7FD83F894A9815A
:104AF000BA8112962D903C9013972101712C612C54
:104B000014960D911C91809142028532F1F08F3FF5
:104B100009F497C0FD81FFBF26960FB6F894DEBF5B
:104B20000FBECDBFDF91CF911F910F91FF90EF90FE
:104B3000DF90CF90BF90AF909F908F907F906F90BD
:104B40005F904F903F902F900895E2E5F2E2B4918C
:104B5000BE83B7FDDFCF61E085E20E946BC09E811E
:104B6000992321F0AE81A23009F0BEC14801B12CD9
:104B7000A12C60E072E18AE790E0A50198010E9413
:104B800063EA29833A834B835C8369017A01B1E04C
:104B9000CB1AD108E108F108EFEFCE16D104E104F9
:104BA000F10409F00CF470C160E472E48FE090E06D
:104BB000A50198010E9463EA69017A01F1E0CF1A28
:104BC000D108E108F1082E81223009F011C182E0FC
:104BD0003FEFC316D104E104F10409F00CF4B8C2AC
:104BE00060E970ED83E090E0A50198010E9463EA1E
:104BF00069017A0181E0C81AD108E108F10883E06F
:104C00009FEFC916D104E104F10409F00CF4A0C22D
:104C100068E478EE81E090E0A50198010E9463EAE3
:104C200069017A0181E0C81AD108E108F1089FEF13
:104C3000C916D104E104F10411F00CF0FDC084E0C8
:104C400087C285E280934202E2E5F2E224912E835C
:104C5000822F2F3F09F45ECF223009F469C060F43F
:104C6000222381F1213009F445C087FD53CF61E053
:104C700085E20E946BC076CF3E81343009F49AC041
:104C800008F478C0353089F7109220011092210184
:104C900080912101886080932101809121018160B0
:104CA00080932101EEE3F1E2E491F0E0EE0FFF1FCB
:104CB000EB51FF4D85919491E4E8F1E2E491E093AA
:104CC000740349CF14BC15BC84B5826084BD85B51E
:104CD000816085BDEEE3F1E2E491F0E0EE0FFF1FAD
:104CE000EB51FF4D85919491E4E8F1E2E491E0937A
:104CF000780331CF10928000109281008091810062
:104D00008860809381008091810081608093810020
:104D1000EEE3F1E2E491F0E0EE0FFF1FEB51FF4D07
:104D200085919491E4E8F1E2E491E093770313CF65
:104D30001092B0001092B1008091B0008260809318
:104D4000B0008091B10081608093B100EEE3F1E2A8
:104D5000E491F0E0EE0FFF1FEB51FF4D8591949130
:104D600090938E0880938D08E4E8F1E2E491E0935B
:104D70008F08F1CE109290001092910080919100D6
:104D80008860809391008091910081608093910070
:104D9000EEE3F1E2E491F0E0EE0FFF1FEB51FF4D87
:104DA00085919491E4E8F1E2E491E093760383E065
:104DB0008E83D1CE1092A0001092A1008091A1000C
:104DC00088608093A1008091A10081608093A10000
:104DD000EEE3F1E2E491F0E0EE0FFF1FEB51FF4D47
:104DE00085919491E4E8F1E2E491E0937503B3CE08
:104DF000AFEFCA16D104E104F10409F00CF472C05B
:104E000068E478EE81E090E0A50198010E9463EAF1
:104E100069017A01B1E0CB1AD108E108F108EE810D
:104E2000EE2309F461C1EFEFCE16D104E104F104E1
:104E300011F00CF062C103CF64E274EF80E090E007
:104E4000A50194010E9463EA69017A01F1E0CF1A99
:104E5000D108E108F10885E02FEFC216D104E10482
:104E6000F10409F008F474C162E17AE780E090E0AF
:104E7000A50194010E9463EA69017A01A1E0CA1ABE
:104E8000D108E108F1084BC181E0AE81A11160C1F8
:104E900095B5987F892B85BD2FEF3FEFA901452858
:104EA0004628472809F059C0BE81B23009F4E1C054
:104EB0000CF0C8C0BB2309F4CDC0B13009F02ACE34
:104EC000D0928900C0928800209385033093860396
:104ED000409387035093880380916F008260809392
:104EE0006F0018CE82E0D1CFB12CA12C60E072E12E
:104EF0008AE790E0A50198010E9463EA69017A01BE
:104F0000B1E0CB1AD108E108F10891E0C114D10455
:104F1000E1E0EE06F10484F068E478EE81E090E0F0
:104F2000A50198010E9463EA69017A01F1E0CF1AB4
:104F3000D108E108F10893E02E812130D9F4809165
:104F40008100887F892B809381002FEF3FEFA9019B
:104F500045284628472809F4B3CF9801220F331F6C
:104F6000D1010E948FEA28EE33E040E050E00E9439
:104F700041EA9ACF3E813330F9F480919100887FE5
:104F8000892B809391002FEF3FEFA90145284628F8
:104F9000472819F7D0929900C09298002093810376
:104FA0003093820340938303509384038091710074
:104FB000826080937100AECD8E818430F9F480914F
:104FC000A100887F892B8093A1002FEF3FEFA901DB
:104FD00045284628472809F6D092A900C092A80083
:104FE00020937D0330937E0340937F03509380038F
:104FF000809172008260809372008CCDAE81A5306A
:1050000009F04ACF80912101887F892B809321016B
:105010002FEF3FEFA90145284628472809F09DCFEB
:10502000D0922901C09228012093790330937A030A
:1050300040937B0350937C03809173008260809344
:10504000730068CDEE81E43039F20CF4A3CFE53083
:1050500039F360CDC7BC2093890330938A03409312
:105060008B0350938C0380916E00826080936E005E
:1050700051CDC092B3002093900830939108409393
:105080009208509393088091700082608093700022
:1050900041CD6C197D098E099F0997FD3DCD409842
:1050A000A981BA8116961D921D921D921C92199784
:1050B00033CD84E0EFEFCE16D104E104F10409F022
:1050C00008F4E6CEC980DA80EB80FC809AE0F594A3
:1050D000E794D794C7949A95D1F7B1E0CB1AD10849
:1050E000E108F10885E0D4CE83E0BFEFCB16D10410
:1050F000E104F10409F00CF4CBCE62E17AE780E040
:1051000090E0A50194010E9463EA69017A0181E0BF
:10511000C81AD108E108F1089E81992351F286E06E
:105120002FEFC216D104E104F10491F088F0C98098
:10513000DA80EB80FC808AE0F594E794D794C794FA
:105140008A95D1F7F1E0CF1AD108E108F10887E09C
:105150009091B100987F892B8093B1009DCE8F9262
:105160009F92AF92CF92DF92EF92FF920F931F9395
:10517000CF93DF9300D01F92CDB7DEB7A090860605
:1051800019821A821B821C82CE0101964C0180E09A
:10519000C82E82E0D82E92E8E92E96E0F92E0EE78E
:1051A00016E02AE736E046E756E062E776E08EE66C
:1051B00096E00E94EEAA0F900F900F900F90DF9153
:1051C000CF911F910F91FF90EF90DF90CF90AF9014
:1051D0009F908F9008958091720390917303009730
:1051E00031F04AE050E070E060E00C9483E360E06E
:1051F00070E0CB010895EFDF97FD0AC0ECDF6F3F51
:1052000071058105910509F02CF4E5DF862F0895DD
:1052100080E008958FEF0895809172039091730359
:10522000892B39F0E8DF91E0811101C090E0892FEE
:10523000089591E0FCCF80917203909173030097E1
:1052400031F04AE050E070E060E00C94AEE460E0E1
:1052500070E0CB0108950F931F93CF938091720359
:1052600090917303009731F1FC018F01C1912C2FB4
:105270002F7DC9F0C53411F0C53661F4F8011082F4
:1052800070E060E00E942EE2F801C083CF911F9190
:105290000F910895CA3491F3CA3681F3C83471F37B
:1052A000C83619F7EBCF70E060E0CF911F910F91F6
:1052B0000C942EE260E070E0CB01E8CF86E40E941F
:1052C000321F80934606882349F0C5DF60932C0285
:1052D00070932D0280932E0290932F0283E50E94FB
:1052E000321F882349F0B7DF609334027093350290
:1052F000809336029093370282E40E94321F882303
:1053000049F0A9DF6093300270933102809332023A
:10531000909333020895CF92DF92EF92FF920F9312
:105320001F93CF93DF933EEEC32E32E0D32E43E89C
:10533000E42E44E0F42E0EE616E0D0E0C0E0F601E4
:1053400081916F010E94321F882309F455C083DFC9
:10535000FE01E95EFB4F2081211104C020911E0453
:105360002223D1F1F80120813181428153810E94B1
:105370009FEAF70160837183828393832196F4E02F
:10538000EF0EF11C0C5F1F4FC630D105C1F686E44D
:105390000E947B1F8823B9F05EDF20E030E0A90186
:1053A0000E94C5EC18167CF456DF20E030E040E7A0
:1053B00052E40E947BEB60930002709301028093A1
:1053C000020290930302DF91CF911F910F91FF9002
:1053D000EF90DF90CF900895C53059F2FE01EE0FA7
:1053E000FF1FEE0FFF1FEC5EF94F208131814281DC
:1053F00053810E949EEABDCFF80180819181A281F4
:10540000B381F70180839183A283B383B7CF8F9257
:105410009F92AF92BF92CF92DF92EF92FF920F9343
:10542000CF93DF931F92CDB7DEB76C017B014901AB
:1054300080916C035B01A40EB51E8823A1F0F601D8
:1054400080819181480F591F518340830F90DF91D4
:10545000CF910F91FF90EF90DF90CF90BF90AF90E2
:105460009F908F900895F601808191810E941CEA9F
:10547000898390911D04992311F0002311F0F70105
:105480008083BE016F5F7F4FC4010E94F0BBF601B5
:1054900080819181019691838083FFEFEF1AFF0A4B
:1054A000EA14FB0401F7D2CF80910F068230B1F0ED
:1054B0009091D711992359F08091E711811104C07F
:1054C0008AED91E10C94CEA987EE91E1FBCF81307A
:1054D00041F084E59CE16FEF0C94DCD285E69CE121
:1054E000FACF89E59CE1F7CF8091F2058630D8F4B8
:1054F00096E0899FF0011124E253FA4F2091440273
:1055000030914502318320834091B1085091B20817
:105510006091B3087091B4084283538364837583A8
:105520008F5F8093F20508952091440230914502E7
:1055300028173907D9F0909345028093440240938D
:10554000B1085093B2086093B3087093B4088155C2
:10555000924421F410928B061092F20582E080931F
:10556000510281E08093AF0810929006089521E0E7
:1055700020938B0660932C0670932D0680932E0645
:1055800090932F0640E050E0BA0180913006909150
:105590003106CACF60E070E080E291E4E8CF60E0DD
:1055A00070E080E89FE3E3CF6DEC7CEC8CEC9DE356
:1055B000DECF40E050E0BA0181E592E4B5CFE09162
:1055C000F205EE2381F0E150E093F20586E0E89FDA
:1055D000F0011124E253FA4F4281538164817581B5
:1055E00080819181A1CFE5CF3F924F925F926F92E0
:1055F0007F928F929F92AF92BF92CF92DF92EF9263
:10560000FF920F931F93CF93DF930E9482BCD091A0
:10561000AD08512CC1E0E3E04E2EF7EE3F2EA4EB97
:10562000CA2EAEE1DA2EB2ECAB2EBEE1BB2E10EDEF
:10563000812E1EE1912E0EED602E0EE1702ED11105
:1056400039C08091B0088823C1F08091510288232D
:1056500059F081E09091B008911180E024E04CEE87
:105660005EE1652D0E9406D1DF5F539494E05912EC
:10567000E6CF89E08093AE080BC080919106882325
:1056800021F3109291069BDF8091AF088823E9F205
:10569000DF91CF911F910F91FF90EF90DF90CF900E
:1056A000BF90AF909F908F907F906F905F904F9042
:1056B0003F900895D13009F04AC08091B008813000
:1056C00009F180915102882379F24F923F921F9203
:1056D000CF938BEF98E09F938F937F926F925F921F
:1056E00081E09091B008913009F080E08F930E94A2
:1056F0004DCF8DB79EB70A960FB6F8949EBF0FBEDA
:105700008DBFB2CF809191068823D9F21092910675
:10571000D093B50810928C0610928D0610928E06CA
:1057200010928F06E12C10ECF12E09E714E420E032
:1057300030E040E85FE36BEF78E085EE9EE10E94A9
:105740003CBD8091AF08882309F4BBCFA1CFD230F4
:1057500009F0EAC18091B008823011F180915102C4
:10576000882309F481CF4F923F921F92CF938FEFFE
:1057700098E09F938F939F928F925F9281E0909198
:10578000B008923009F080E08F930E944DCF8DB722
:105790009EB70A960FB6F8949EBF0FBE8DBF64CF1A
:1057A000809191068823D1F210929106C093B5089A
:1057B00010928C0610928D0610928E0610928F0613
:1057C000E12C10ECF12E09E714E420E030E040E891
:1057D0005FE36FEF78E087ED9EE10E943CBD809132
:1057E000AF08882309F4BACF53CF8091B008833033
:1057F00011F180915102882309F436CF4F923F92E4
:105800001F92CF9383E099E09F938F93BF92AF92C3
:105810005F9281E09091B008933009F080E08F931F
:105820000E944DCF8DB79EB70A960FB6F8949EBFD3
:105830000FBE8DBF19CF809191068823D1F21092AF
:105840009106C093B50810928C0610928D061092A6
:105850008E0610928F06E12C10ECF12E09E714E46D
:1058600020E030E040E85FE363E079E089EC9EE12E
:105870000E943CBD8091AF08882309F4BACF08CFBD
:105880008091B008843011F180915102882309F48D
:10589000EBCE4F923F921F92CF9387E099E09F9378
:1058A0008F93DF92CF925F9281E09091B008943015
:1058B00009F080E08F930E944DCF8DB79EB70A9676
:1058C0000FB6F8949EBF0FBE8DBFCECE80919106CD
:1058D0008823D1F210929106C093B50810928C06DD
:1058E00010928D0610928E0610928F06E12C10EC0D
:1058F000F12E09E714E420E030E040E85FE367E0E0
:1059000079E08BEB9EE10E943CBD8091AF0888233B
:1059100009F4BACFBDCE8091B008853021F18091D5
:105920005102882309F4A0CE4F923F921F92CF9349
:105930008BE099E09F938F9386EA9EE19F938F93EC
:105940005F9281E09091B008953009F080E08F93EC
:105950000E944DCF8DB79EB70A960FB6F8949EBFA2
:105960000FBE8DBF81CE809191068823C1F2109227
:105970009106C093B50810928C0610928D06109275
:105980008E0610928F06E12C10ECF12E09E714E43C
:1059900020E030E040E85FE36BE079E08DEA9EE1F3
:1059A0000E943CBD8091AF08882309F4B8CF70CE27
:1059B0008091B008863021F180915102882309F44A
:1059C00053CE4F923F921F92CF938FE099E09F93D7
:1059D0008F9388E99EE19F938F935F9281E09091EE
:1059E000B008963009F080E08F930E944DCF8DB7BC
:1059F0009EB70A960FB6F8949EBF0FBE8DBF34CEE9
:105A0000809191068823C1F210929106C093B50847
:105A100010928C0610928D0610928E0610928F06B0
:105A2000E12C10ECF12E09E714E420E030E040E82E
:105A30005FE36FE079E08FE99EE10E943CBD8091D9
:105A4000AF08882309F4B8CF23CE8091B0088730FF
:105A500021F180915102882309F406CE4F923F92A2
:105A60001F921F9287E399E09F938F938EE89EE1A8
:105A70009F938F935F9281E09091B008973009F0E7
:105A800080E08F930E944DCF8DB79EB70A960FB6D8
:105A9000F8949EBF0FBE8DBFE7CD809191068823FD
:105AA000C1F210929106C093B50810928C06109224
:105AB0008D0610928E0610928F06E12C10ECF12EBE
:105AC00009E714E420E030E0A90167E379E083E925
:105AD0009EE10E943CBD8091AF08882309F4B9CFB4
